{
  "contractName": "MarketItems",
  "abi": [
    {
      "inputs": [
        {
          "internalType": "string",
          "name": "name",
          "type": "string"
        },
        {
          "internalType": "string",
          "name": "symbol",
          "type": "string"
        }
      ],
      "stateMutability": "nonpayable",
      "type": "constructor"
    },
    {
      "anonymous": false,
      "inputs": [
        {
          "indexed": true,
          "internalType": "address",
          "name": "owner",
          "type": "address"
        },
        {
          "indexed": true,
          "internalType": "address",
          "name": "approved",
          "type": "address"
        },
        {
          "indexed": true,
          "internalType": "uint256",
          "name": "tokenId",
          "type": "uint256"
        }
      ],
      "name": "Approval",
      "type": "event"
    },
    {
      "anonymous": false,
      "inputs": [
        {
          "indexed": true,
          "internalType": "address",
          "name": "owner",
          "type": "address"
        },
        {
          "indexed": true,
          "internalType": "address",
          "name": "operator",
          "type": "address"
        },
        {
          "indexed": false,
          "internalType": "bool",
          "name": "approved",
          "type": "bool"
        }
      ],
      "name": "ApprovalForAll",
      "type": "event"
    },
    {
      "anonymous": false,
      "inputs": [
        {
          "indexed": true,
          "internalType": "address",
          "name": "from",
          "type": "address"
        },
        {
          "indexed": true,
          "internalType": "address",
          "name": "to",
          "type": "address"
        },
        {
          "indexed": true,
          "internalType": "uint256",
          "name": "tokenId",
          "type": "uint256"
        }
      ],
      "name": "Transfer",
      "type": "event"
    },
    {
      "inputs": [
        {
          "internalType": "address",
          "name": "to",
          "type": "address"
        },
        {
          "internalType": "uint256",
          "name": "tokenId",
          "type": "uint256"
        }
      ],
      "name": "approve",
      "outputs": [],
      "stateMutability": "nonpayable",
      "type": "function"
    },
    {
      "inputs": [
        {
          "internalType": "address",
          "name": "owner",
          "type": "address"
        }
      ],
      "name": "balanceOf",
      "outputs": [
        {
          "internalType": "uint256",
          "name": "",
          "type": "uint256"
        }
      ],
      "stateMutability": "view",
      "type": "function"
    },
    {
      "inputs": [
        {
          "internalType": "uint256",
          "name": "tokenId",
          "type": "uint256"
        }
      ],
      "name": "getApproved",
      "outputs": [
        {
          "internalType": "address",
          "name": "",
          "type": "address"
        }
      ],
      "stateMutability": "view",
      "type": "function"
    },
    {
      "inputs": [
        {
          "internalType": "address",
          "name": "owner",
          "type": "address"
        },
        {
          "internalType": "address",
          "name": "operator",
          "type": "address"
        }
      ],
      "name": "isApprovedForAll",
      "outputs": [
        {
          "internalType": "bool",
          "name": "",
          "type": "bool"
        }
      ],
      "stateMutability": "view",
      "type": "function"
    },
    {
      "inputs": [],
      "name": "name",
      "outputs": [
        {
          "internalType": "string",
          "name": "",
          "type": "string"
        }
      ],
      "stateMutability": "view",
      "type": "function"
    },
    {
      "inputs": [
        {
          "internalType": "uint256",
          "name": "tokenId",
          "type": "uint256"
        }
      ],
      "name": "ownerOf",
      "outputs": [
        {
          "internalType": "address",
          "name": "",
          "type": "address"
        }
      ],
      "stateMutability": "view",
      "type": "function"
    },
    {
      "inputs": [
        {
          "internalType": "address",
          "name": "from",
          "type": "address"
        },
        {
          "internalType": "address",
          "name": "to",
          "type": "address"
        },
        {
          "internalType": "uint256",
          "name": "tokenId",
          "type": "uint256"
        }
      ],
      "name": "safeTransferFrom",
      "outputs": [],
      "stateMutability": "nonpayable",
      "type": "function"
    },
    {
      "inputs": [
        {
          "internalType": "address",
          "name": "from",
          "type": "address"
        },
        {
          "internalType": "address",
          "name": "to",
          "type": "address"
        },
        {
          "internalType": "uint256",
          "name": "tokenId",
          "type": "uint256"
        },
        {
          "internalType": "bytes",
          "name": "data",
          "type": "bytes"
        }
      ],
      "name": "safeTransferFrom",
      "outputs": [],
      "stateMutability": "nonpayable",
      "type": "function"
    },
    {
      "inputs": [
        {
          "internalType": "address",
          "name": "operator",
          "type": "address"
        },
        {
          "internalType": "bool",
          "name": "approved",
          "type": "bool"
        }
      ],
      "name": "setApprovalForAll",
      "outputs": [],
      "stateMutability": "nonpayable",
      "type": "function"
    },
    {
      "inputs": [
        {
          "internalType": "bytes4",
          "name": "interfaceId",
          "type": "bytes4"
        }
      ],
      "name": "supportsInterface",
      "outputs": [
        {
          "internalType": "bool",
          "name": "",
          "type": "bool"
        }
      ],
      "stateMutability": "view",
      "type": "function"
    },
    {
      "inputs": [],
      "name": "symbol",
      "outputs": [
        {
          "internalType": "string",
          "name": "",
          "type": "string"
        }
      ],
      "stateMutability": "view",
      "type": "function"
    },
    {
      "inputs": [
        {
          "internalType": "uint256",
          "name": "tokenId",
          "type": "uint256"
        }
      ],
      "name": "tokenURI",
      "outputs": [
        {
          "internalType": "string",
          "name": "",
          "type": "string"
        }
      ],
      "stateMutability": "view",
      "type": "function"
    },
    {
      "inputs": [
        {
          "internalType": "address",
          "name": "from",
          "type": "address"
        },
        {
          "internalType": "address",
          "name": "to",
          "type": "address"
        },
        {
          "internalType": "uint256",
          "name": "tokenId",
          "type": "uint256"
        }
      ],
      "name": "transferFrom",
      "outputs": [],
      "stateMutability": "nonpayable",
      "type": "function"
    },
    {
      "inputs": [
        {
          "internalType": "address",
          "name": "player",
          "type": "address"
        },
        {
          "internalType": "string",
          "name": "tokenURI",
          "type": "string"
        }
      ],
      "name": "nftItem",
      "outputs": [
        {
          "internalType": "uint256",
          "name": "",
          "type": "uint256"
        }
      ],
      "stateMutability": "nonpayable",
      "type": "function"
    }
  ],
  "bytecode": "0x60806040523480156200001157600080fd5b5060405162003238380380620032388339818101604052810190620000379190620001fa565b818181600090816200004a9190620004ca565b5080600190816200005c9190620004ca565b5050505050620005b1565b6000604051905090565b600080fd5b600080fd5b600080fd5b600080fd5b6000601f19601f8301169050919050565b7f4e487b7100000000000000000000000000000000000000000000000000000000600052604160045260246000fd5b620000d08262000085565b810181811067ffffffffffffffff82111715620000f257620000f162000096565b5b80604052505050565b60006200010762000067565b9050620001158282620000c5565b919050565b600067ffffffffffffffff82111562000138576200013762000096565b5b620001438262000085565b9050602081019050919050565b60005b838110156200017057808201518184015260208101905062000153565b60008484015250505050565b6000620001936200018d846200011a565b620000fb565b905082815260208101848484011115620001b257620001b162000080565b5b620001bf84828562000150565b509392505050565b600082601f830112620001df57620001de6200007b565b5b8151620001f18482602086016200017c565b91505092915050565b6000806040838503121562000214576200021362000071565b5b600083015167ffffffffffffffff81111562000235576200023462000076565b5b6200024385828601620001c7565b925050602083015167ffffffffffffffff81111562000267576200026662000076565b5b6200027585828601620001c7565b9150509250929050565b600081519050919050565b7f4e487b7100000000000000000000000000000000000000000000000000000000600052602260045260246000fd5b60006002820490506001821680620002d257607f821691505b602082108103620002e857620002e76200028a565b5b50919050565b60008190508160005260206000209050919050565b60006020601f8301049050919050565b600082821b905092915050565b600060088302620003527fffffffffffffffffffffffffffffffffffffffffffffffffffffffffffffffff8262000313565b6200035e868362000313565b95508019841693508086168417925050509392505050565b6000819050919050565b6000819050919050565b6000620003ab620003a56200039f8462000376565b62000380565b62000376565b9050919050565b6000819050919050565b620003c7836200038a565b620003df620003d682620003b2565b84845462000320565b825550505050565b600090565b620003f6620003e7565b62000403818484620003bc565b505050565b5b818110156200042b576200041f600082620003ec565b60018101905062000409565b5050565b601f8211156200047a576200044481620002ee565b6200044f8462000303565b810160208510156200045f578190505b620004776200046e8562000303565b83018262000408565b50505b505050565b600082821c905092915050565b60006200049f600019846008026200047f565b1980831691505092915050565b6000620004ba83836200048c565b9150826002028217905092915050565b620004d5826200027f565b67ffffffffffffffff811115620004f157620004f062000096565b5b620004fd8254620002b9565b6200050a8282856200042f565b600060209050601f8311600181146200054257600084156200052d578287015190505b620005398582620004ac565b865550620005a9565b601f1984166200055286620002ee565b60005b828110156200057c5784890151825560018201915060208501945060208101905062000555565b868310156200059c578489015162000598601f8916826200048c565b8355505b6001600288020188555050505b505050505050565b612c7780620005c16000396000f3fe608060405234801561001057600080fd5b50600436106100ea5760003560e01c806370a082311161008c578063a44c039511610066578063a44c03951461025b578063b88d4fde1461028b578063c87b56dd146102a7578063e985e9c5146102d7576100ea565b806370a08231146101f157806395d89b4114610221578063a22cb4651461023f576100ea565b8063095ea7b3116100c8578063095ea7b31461016d57806323b872dd1461018957806342842e0e146101a55780636352211e146101c1576100ea565b806301ffc9a7146100ef57806306fdde031461011f578063081812fc1461013d575b600080fd5b61010960048036038101906101049190611acf565b610307565b6040516101169190611b17565b60405180910390f35b6101276103e9565b6040516101349190611bc2565b60405180910390f35b61015760048036038101906101529190611c1a565b61047b565b6040516101649190611c88565b60405180910390f35b61018760048036038101906101829190611ccf565b6104c1565b005b6101a3600480360381019061019e9190611d0f565b6105d8565b005b6101bf60048036038101906101ba9190611d0f565b610638565b005b6101db60048036038101906101d69190611c1a565b610658565b6040516101e89190611c88565b60405180910390f35b61020b60048036038101906102069190611d62565b6106de565b6040516102189190611d9e565b60405180910390f35b610229610795565b6040516102369190611bc2565b60405180910390f35b61025960048036038101906102549190611de5565b610827565b005b61027560048036038101906102709190611f5a565b61083d565b6040516102829190611d9e565b60405180910390f35b6102a560048036038101906102a09190612057565b610874565b005b6102c160048036038101906102bc9190611c1a565b6108d6565b6040516102ce9190611bc2565b60405180910390f35b6102f160048036038101906102ec91906120da565b6109e8565b6040516102fe9190611b17565b60405180910390f35b60007f80ac58cd000000000000000000000000000000000000000000000000000000007bffffffffffffffffffffffffffffffffffffffffffffffffffffffff1916827bffffffffffffffffffffffffffffffffffffffffffffffffffffffff191614806103d257507f5b5e139f000000000000000000000000000000000000000000000000000000007bffffffffffffffffffffffffffffffffffffffffffffffffffffffff1916827bffffffffffffffffffffffffffffffffffffffffffffffffffffffff1916145b806103e257506103e182610a7c565b5b9050919050565b6060600080546103f890612149565b80601f016020809104026020016040519081016040528092919081815260200182805461042490612149565b80156104715780601f1061044657610100808354040283529160200191610471565b820191906000526020600020905b81548152906001019060200180831161045457829003601f168201915b5050505050905090565b600061048682610ae6565b6004600083815260200190815260200160002060009054906101000a900473ffffffffffffffffffffffffffffffffffffffff169050919050565b60006104cc82610658565b90508073ffffffffffffffffffffffffffffffffffffffff168373ffffffffffffffffffffffffffffffffffffffff160361053c576040517f08c379a0000000000000000000000000000000000000000000000000000000008152600401610533906121ec565b60405180910390fd5b8073ffffffffffffffffffffffffffffffffffffffff1661055b610b31565b73ffffffffffffffffffffffffffffffffffffffff16148061058a575061058981610584610b31565b6109e8565b5b6105c9576040517f08c379a00000000000000000000000000000000000000000000000000000000081526004016105c09061227e565b60405180910390fd5b6105d38383610b39565b505050565b6105e96105e3610b31565b82610bf2565b610628576040517f08c379a000000000000000000000000000000000000000000000000000000000815260040161061f90612310565b60405180910390fd5b610633838383610c87565b505050565b61065383838360405180602001604052806000815250610874565b505050565b60008061066483610f80565b9050600073ffffffffffffffffffffffffffffffffffffffff168173ffffffffffffffffffffffffffffffffffffffff16036106d5576040517f08c379a00000000000000000000000000000000000000000000000000000000081526004016106cc9061237c565b60405180910390fd5b80915050919050565b60008073ffffffffffffffffffffffffffffffffffffffff168273ffffffffffffffffffffffffffffffffffffffff160361074e576040517f08c379a00000000000000000000000000000000000000000000000000000000081526004016107459061240e565b60405180910390fd5b600360008373ffffffffffffffffffffffffffffffffffffffff1673ffffffffffffffffffffffffffffffffffffffff168152602001908152602001600020549050919050565b6060600180546107a490612149565b80601f01602080910402602001604051908101604052809291908181526020018280546107d090612149565b801561081d5780601f106107f25761010080835404028352916020019161081d565b820191906000526020600020905b81548152906001019060200180831161080057829003601f168201915b5050505050905090565b610839610832610b31565b8383610fbd565b5050565b60008061084a6007611129565b90506108568482611137565b6108608184611155565b61086a60076111c2565b8091505092915050565b61088561087f610b31565b83610bf2565b6108c4576040517f08c379a00000000000000000000000000000000000000000000000000000000081526004016108bb90612310565b60405180910390fd5b6108d0848484846111d8565b50505050565b60606108e182610ae6565b600060066000848152602001908152602001600020805461090190612149565b80601f016020809104026020016040519081016040528092919081815260200182805461092d90612149565b801561097a5780601f1061094f5761010080835404028352916020019161097a565b820191906000526020600020905b81548152906001019060200180831161095d57829003601f168201915b50505050509050600061098b611234565b905060008151036109a05781925050506109e3565b6000825111156109d55780826040516020016109bd92919061246a565b604051602081830303815290604052925050506109e3565b6109de8461124b565b925050505b919050565b6000600560008473ffffffffffffffffffffffffffffffffffffffff1673ffffffffffffffffffffffffffffffffffffffff16815260200190815260200160002060008373ffffffffffffffffffffffffffffffffffffffff1673ffffffffffffffffffffffffffffffffffffffff16815260200190815260200160002060009054906101000a900460ff16905092915050565b60007f01ffc9a7000000000000000000000000000000000000000000000000000000007bffffffffffffffffffffffffffffffffffffffffffffffffffffffff1916827bffffffffffffffffffffffffffffffffffffffffffffffffffffffff1916149050919050565b610aef816112b3565b610b2e576040517f08c379a0000000000000000000000000000000000000000000000000000000008152600401610b259061237c565b60405180910390fd5b50565b600033905090565b816004600083815260200190815260200160002060006101000a81548173ffffffffffffffffffffffffffffffffffffffff021916908373ffffffffffffffffffffffffffffffffffffffff160217905550808273ffffffffffffffffffffffffffffffffffffffff16610bac83610658565b73ffffffffffffffffffffffffffffffffffffffff167f8c5be1e5ebec7d5bd14f71427d1e84f3dd0314c0f7b2291e5b200ac8c7c3b92560405160405180910390a45050565b600080610bfe83610658565b90508073ffffffffffffffffffffffffffffffffffffffff168473ffffffffffffffffffffffffffffffffffffffff161480610c405750610c3f81856109e8565b5b80610c7e57508373ffffffffffffffffffffffffffffffffffffffff16610c668461047b565b73ffffffffffffffffffffffffffffffffffffffff16145b91505092915050565b8273ffffffffffffffffffffffffffffffffffffffff16610ca782610658565b73ffffffffffffffffffffffffffffffffffffffff1614610cfd576040517f08c379a0000000000000000000000000000000000000000000000000000000008152600401610cf490612500565b60405180910390fd5b600073ffffffffffffffffffffffffffffffffffffffff168273ffffffffffffffffffffffffffffffffffffffff1603610d6c576040517f08c379a0000000000000000000000000000000000000000000000000000000008152600401610d6390612592565b60405180910390fd5b610d7983838360016112f4565b8273ffffffffffffffffffffffffffffffffffffffff16610d9982610658565b73ffffffffffffffffffffffffffffffffffffffff1614610def576040517f08c379a0000000000000000000000000000000000000000000000000000000008152600401610de690612500565b60405180910390fd5b6004600082815260200190815260200160002060006101000a81549073ffffffffffffffffffffffffffffffffffffffff02191690556001600360008573ffffffffffffffffffffffffffffffffffffffff1673ffffffffffffffffffffffffffffffffffffffff168152602001908152602001600020600082825403925050819055506001600360008473ffffffffffffffffffffffffffffffffffffffff1673ffffffffffffffffffffffffffffffffffffffff16815260200190815260200160002060008282540192505081905550816002600083815260200190815260200160002060006101000a81548173ffffffffffffffffffffffffffffffffffffffff021916908373ffffffffffffffffffffffffffffffffffffffff160217905550808273ffffffffffffffffffffffffffffffffffffffff168473ffffffffffffffffffffffffffffffffffffffff167fddf252ad1be2c89b69c2b068fc378daa952ba7f163c4a11628f55a4df523b3ef60405160405180910390a4610f7b838383600161141a565b505050565b60006002600083815260200190815260200160002060009054906101000a900473ffffffffffffffffffffffffffffffffffffffff169050919050565b8173ffffffffffffffffffffffffffffffffffffffff168373ffffffffffffffffffffffffffffffffffffffff160361102b576040517f08c379a0000000000000000000000000000000000000000000000000000000008152600401611022906125fe565b60405180910390fd5b80600560008573ffffffffffffffffffffffffffffffffffffffff1673ffffffffffffffffffffffffffffffffffffffff16815260200190815260200160002060008473ffffffffffffffffffffffffffffffffffffffff1673ffffffffffffffffffffffffffffffffffffffff16815260200190815260200160002060006101000a81548160ff0219169083151502179055508173ffffffffffffffffffffffffffffffffffffffff168373ffffffffffffffffffffffffffffffffffffffff167f17307eab39ab6107e8899845ad3d59bd9653f200f220920489ca2b5937696c318360405161111c9190611b17565b60405180910390a3505050565b600081600001549050919050565b611151828260405180602001604052806000815250611420565b5050565b61115e826112b3565b61119d576040517f08c379a000000000000000000000000000000000000000000000000000000000815260040161119490612690565b60405180910390fd5b806006600084815260200190815260200160002090816111bd919061285c565b505050565b6001816000016000828254019250508190555050565b6111e3848484610c87565b6111ef8484848461147b565b61122e576040517f08c379a0000000000000000000000000000000000000000000000000000000008152600401611225906129a0565b60405180910390fd5b50505050565b606060405180602001604052806000815250905090565b606061125682610ae6565b6000611260611234565b9050600081511161128057604051806020016040528060008152506112ab565b8061128a84611602565b60405160200161129b92919061246a565b6040516020818303038152906040525b915050919050565b60008073ffffffffffffffffffffffffffffffffffffffff166112d583610f80565b73ffffffffffffffffffffffffffffffffffffffff1614159050919050565b600181111561141457600073ffffffffffffffffffffffffffffffffffffffff168473ffffffffffffffffffffffffffffffffffffffff16146113885780600360008673ffffffffffffffffffffffffffffffffffffffff1673ffffffffffffffffffffffffffffffffffffffff168152602001908152602001600020600082825461138091906129ef565b925050819055505b600073ffffffffffffffffffffffffffffffffffffffff168373ffffffffffffffffffffffffffffffffffffffff16146114135780600360008573ffffffffffffffffffffffffffffffffffffffff1673ffffffffffffffffffffffffffffffffffffffff168152602001908152602001600020600082825461140b9190612a23565b925050819055505b5b50505050565b50505050565b61142a83836116d0565b611437600084848461147b565b611476576040517f08c379a000000000000000000000000000000000000000000000000000000000815260040161146d906129a0565b60405180910390fd5b505050565b600061149c8473ffffffffffffffffffffffffffffffffffffffff166118ed565b156115f5578373ffffffffffffffffffffffffffffffffffffffff1663150b7a026114c5610b31565b8786866040518563ffffffff1660e01b81526004016114e79493929190612aac565b6020604051808303816000875af192505050801561152357506040513d601f19601f820116820180604052508101906115209190612b0d565b60015b6115a5573d8060008114611553576040519150601f19603f3d011682016040523d82523d6000602084013e611558565b606091505b50600081510361159d576040517f08c379a0000000000000000000000000000000000000000000000000000000008152600401611594906129a0565b60405180910390fd5b805181602001fd5b63150b7a0260e01b7bffffffffffffffffffffffffffffffffffffffffffffffffffffffff1916817bffffffffffffffffffffffffffffffffffffffffffffffffffffffff1916149150506115fa565b600190505b949350505050565b60606000600161161184611910565b01905060008167ffffffffffffffff8111156116305761162f611e2f565b5b6040519080825280601f01601f1916602001820160405280156116625781602001600182028036833780820191505090505b509050600082602001820190505b6001156116c5578080600190039150507f3031323334353637383961626364656600000000000000000000000000000000600a86061a8153600a85816116b9576116b8612b3a565b5b04945060008503611670575b819350505050919050565b600073ffffffffffffffffffffffffffffffffffffffff168273ffffffffffffffffffffffffffffffffffffffff160361173f576040517f08c379a000000000000000000000000000000000000000000000000000000000815260040161173690612bb5565b60405180910390fd5b611748816112b3565b15611788576040517f08c379a000000000000000000000000000000000000000000000000000000000815260040161177f90612c21565b60405180910390fd5b6117966000838360016112f4565b61179f816112b3565b156117df576040517f08c379a00000000000000000000000000000000000000000000000000000000081526004016117d690612c21565b60405180910390fd5b6001600360008473ffffffffffffffffffffffffffffffffffffffff1673ffffffffffffffffffffffffffffffffffffffff16815260200190815260200160002060008282540192505081905550816002600083815260200190815260200160002060006101000a81548173ffffffffffffffffffffffffffffffffffffffff021916908373ffffffffffffffffffffffffffffffffffffffff160217905550808273ffffffffffffffffffffffffffffffffffffffff16600073ffffffffffffffffffffffffffffffffffffffff167fddf252ad1be2c89b69c2b068fc378daa952ba7f163c4a11628f55a4df523b3ef60405160405180910390a46118e960008383600161141a565b5050565b6000808273ffffffffffffffffffffffffffffffffffffffff163b119050919050565b600080600090507a184f03e93ff9f4daa797ed6e38ed64bf6a1f010000000000000000831061196e577a184f03e93ff9f4daa797ed6e38ed64bf6a1f010000000000000000838161196457611963612b3a565b5b0492506040810190505b6d04ee2d6d415b85acef810000000083106119ab576d04ee2d6d415b85acef810000000083816119a1576119a0612b3a565b5b0492506020810190505b662386f26fc1000083106119da57662386f26fc1000083816119d0576119cf612b3a565b5b0492506010810190505b6305f5e1008310611a03576305f5e10083816119f9576119f8612b3a565b5b0492506008810190505b6127108310611a28576127108381611a1e57611a1d612b3a565b5b0492506004810190505b60648310611a4b5760648381611a4157611a40612b3a565b5b0492506002810190505b600a8310611a5a576001810190505b80915050919050565b6000604051905090565b600080fd5b600080fd5b60007fffffffff0000000000000000000000000000000000000000000000000000000082169050919050565b611aac81611a77565b8114611ab757600080fd5b50565b600081359050611ac981611aa3565b92915050565b600060208284031215611ae557611ae4611a6d565b5b6000611af384828501611aba565b91505092915050565b60008115159050919050565b611b1181611afc565b82525050565b6000602082019050611b2c6000830184611b08565b92915050565b600081519050919050565b600082825260208201905092915050565b60005b83811015611b6c578082015181840152602081019050611b51565b60008484015250505050565b6000601f19601f8301169050919050565b6000611b9482611b32565b611b9e8185611b3d565b9350611bae818560208601611b4e565b611bb781611b78565b840191505092915050565b60006020820190508181036000830152611bdc8184611b89565b905092915050565b6000819050919050565b611bf781611be4565b8114611c0257600080fd5b50565b600081359050611c1481611bee565b92915050565b600060208284031215611c3057611c2f611a6d565b5b6000611c3e84828501611c05565b91505092915050565b600073ffffffffffffffffffffffffffffffffffffffff82169050919050565b6000611c7282611c47565b9050919050565b611c8281611c67565b82525050565b6000602082019050611c9d6000830184611c79565b92915050565b611cac81611c67565b8114611cb757600080fd5b50565b600081359050611cc981611ca3565b92915050565b60008060408385031215611ce657611ce5611a6d565b5b6000611cf485828601611cba565b9250506020611d0585828601611c05565b9150509250929050565b600080600060608486031215611d2857611d27611a6d565b5b6000611d3686828701611cba565b9350506020611d4786828701611cba565b9250506040611d5886828701611c05565b9150509250925092565b600060208284031215611d7857611d77611a6d565b5b6000611d8684828501611cba565b91505092915050565b611d9881611be4565b82525050565b6000602082019050611db36000830184611d8f565b92915050565b611dc281611afc565b8114611dcd57600080fd5b50565b600081359050611ddf81611db9565b92915050565b60008060408385031215611dfc57611dfb611a6d565b5b6000611e0a85828601611cba565b9250506020611e1b85828601611dd0565b9150509250929050565b600080fd5b600080fd5b7f4e487b7100000000000000000000000000000000000000000000000000000000600052604160045260246000fd5b611e6782611b78565b810181811067ffffffffffffffff82111715611e8657611e85611e2f565b5b80604052505050565b6000611e99611a63565b9050611ea58282611e5e565b919050565b600067ffffffffffffffff821115611ec557611ec4611e2f565b5b611ece82611b78565b9050602081019050919050565b82818337600083830152505050565b6000611efd611ef884611eaa565b611e8f565b905082815260208101848484011115611f1957611f18611e2a565b5b611f24848285611edb565b509392505050565b600082601f830112611f4157611f40611e25565b5b8135611f51848260208601611eea565b91505092915050565b60008060408385031215611f7157611f70611a6d565b5b6000611f7f85828601611cba565b925050602083013567ffffffffffffffff811115611fa057611f9f611a72565b5b611fac85828601611f2c565b9150509250929050565b600067ffffffffffffffff821115611fd157611fd0611e2f565b5b611fda82611b78565b9050602081019050919050565b6000611ffa611ff584611fb6565b611e8f565b90508281526020810184848401111561201657612015611e2a565b5b612021848285611edb565b509392505050565b600082601f83011261203e5761203d611e25565b5b813561204e848260208601611fe7565b91505092915050565b6000806000806080858703121561207157612070611a6d565b5b600061207f87828801611cba565b945050602061209087828801611cba565b93505060406120a187828801611c05565b925050606085013567ffffffffffffffff8111156120c2576120c1611a72565b5b6120ce87828801612029565b91505092959194509250565b600080604083850312156120f1576120f0611a6d565b5b60006120ff85828601611cba565b925050602061211085828601611cba565b9150509250929050565b7f4e487b7100000000000000000000000000000000000000000000000000000000600052602260045260246000fd5b6000600282049050600182168061216157607f821691505b6020821081036121745761217361211a565b5b50919050565b7f4552433732313a20617070726f76616c20746f2063757272656e74206f776e6560008201527f7200000000000000000000000000000000000000000000000000000000000000602082015250565b60006121d6602183611b3d565b91506121e18261217a565b604082019050919050565b60006020820190508181036000830152612205816121c9565b9050919050565b7f4552433732313a20617070726f76652063616c6c6572206973206e6f7420746f60008201527f6b656e206f776e6572206f7220617070726f76656420666f7220616c6c000000602082015250565b6000612268603d83611b3d565b91506122738261220c565b604082019050919050565b600060208201905081810360008301526122978161225b565b9050919050565b7f4552433732313a2063616c6c6572206973206e6f7420746f6b656e206f776e6560008201527f72206f7220617070726f76656400000000000000000000000000000000000000602082015250565b60006122fa602d83611b3d565b91506123058261229e565b604082019050919050565b60006020820190508181036000830152612329816122ed565b9050919050565b7f4552433732313a20696e76616c696420746f6b656e2049440000000000000000600082015250565b6000612366601883611b3d565b915061237182612330565b602082019050919050565b6000602082019050818103600083015261239581612359565b9050919050565b7f4552433732313a2061646472657373207a65726f206973206e6f74206120766160008201527f6c6964206f776e65720000000000000000000000000000000000000000000000602082015250565b60006123f8602983611b3d565b91506124038261239c565b604082019050919050565b60006020820190508181036000830152612427816123eb565b9050919050565b600081905092915050565b600061244482611b32565b61244e818561242e565b935061245e818560208601611b4e565b80840191505092915050565b60006124768285612439565b91506124828284612439565b91508190509392505050565b7f4552433732313a207472616e736665722066726f6d20696e636f72726563742060008201527f6f776e6572000000000000000000000000000000000000000000000000000000602082015250565b60006124ea602583611b3d565b91506124f58261248e565b604082019050919050565b60006020820190508181036000830152612519816124dd565b9050919050565b7f4552433732313a207472616e7366657220746f20746865207a65726f2061646460008201527f7265737300000000000000000000000000000000000000000000000000000000602082015250565b600061257c602483611b3d565b915061258782612520565b604082019050919050565b600060208201905081810360008301526125ab8161256f565b9050919050565b7f4552433732313a20617070726f766520746f2063616c6c657200000000000000600082015250565b60006125e8601983611b3d565b91506125f3826125b2565b602082019050919050565b60006020820190508181036000830152612617816125db565b9050919050565b7f45524337323155524953746f726167653a2055524920736574206f66206e6f6e60008201527f6578697374656e7420746f6b656e000000000000000000000000000000000000602082015250565b600061267a602e83611b3d565b91506126858261261e565b604082019050919050565b600060208201905081810360008301526126a98161266d565b9050919050565b60008190508160005260206000209050919050565b60006020601f8301049050919050565b600082821b905092915050565b6000600883026127127fffffffffffffffffffffffffffffffffffffffffffffffffffffffffffffffff826126d5565b61271c86836126d5565b95508019841693508086168417925050509392505050565b6000819050919050565b600061275961275461274f84611be4565b612734565b611be4565b9050919050565b6000819050919050565b6127738361273e565b61278761277f82612760565b8484546126e2565b825550505050565b600090565b61279c61278f565b6127a781848461276a565b505050565b5b818110156127cb576127c0600082612794565b6001810190506127ad565b5050565b601f821115612810576127e1816126b0565b6127ea846126c5565b810160208510156127f9578190505b61280d612805856126c5565b8301826127ac565b50505b505050565b600082821c905092915050565b600061283360001984600802612815565b1980831691505092915050565b600061284c8383612822565b9150826002028217905092915050565b61286582611b32565b67ffffffffffffffff81111561287e5761287d611e2f565b5b6128888254612149565b6128938282856127cf565b600060209050601f8311600181146128c657600084156128b4578287015190505b6128be8582612840565b865550612926565b601f1984166128d4866126b0565b60005b828110156128fc578489015182556001820191506020850194506020810190506128d7565b868310156129195784890151612915601f891682612822565b8355505b6001600288020188555050505b505050505050565b7f4552433732313a207472616e7366657220746f206e6f6e20455243373231526560008201527f63656976657220696d706c656d656e7465720000000000000000000000000000602082015250565b600061298a603283611b3d565b91506129958261292e565b604082019050919050565b600060208201905081810360008301526129b98161297d565b9050919050565b7f4e487b7100000000000000000000000000000000000000000000000000000000600052601160045260246000fd5b60006129fa82611be4565b9150612a0583611be4565b9250828203905081811115612a1d57612a1c6129c0565b5b92915050565b6000612a2e82611be4565b9150612a3983611be4565b9250828201905080821115612a5157612a506129c0565b5b92915050565b600081519050919050565b600082825260208201905092915050565b6000612a7e82612a57565b612a888185612a62565b9350612a98818560208601611b4e565b612aa181611b78565b840191505092915050565b6000608082019050612ac16000830187611c79565b612ace6020830186611c79565b612adb6040830185611d8f565b8181036060830152612aed8184612a73565b905095945050505050565b600081519050612b0781611aa3565b92915050565b600060208284031215612b2357612b22611a6d565b5b6000612b3184828501612af8565b91505092915050565b7f4e487b7100000000000000000000000000000000000000000000000000000000600052601260045260246000fd5b7f4552433732313a206d696e7420746f20746865207a65726f2061646472657373600082015250565b6000612b9f602083611b3d565b9150612baa82612b69565b602082019050919050565b60006020820190508181036000830152612bce81612b92565b9050919050565b7f4552433732313a20746f6b656e20616c7265616479206d696e74656400000000600082015250565b6000612c0b601c83611b3d565b9150612c1682612bd5565b602082019050919050565b60006020820190508181036000830152612c3a81612bfe565b905091905056fea2646970667358221220e26d1f419eeab748b3f21c620ef04f582997a475b486a777643e41e05d5075e564736f6c63430008110033",
  "immutableReferences": {},
  "source": "// SPDX-License-Identifier: MIT\npragma solidity ^0.8.0;\n\nimport \"@openzeppelin/contracts/token/ERC721/extensions/ERC721URIStorage.sol\";\nimport \"@openzeppelin/contracts/utils/Counters.sol\";\n\ncontract MarketItems is ERC721URIStorage {\n    using Counters for Counters.Counter;\n    Counters.Counter private _tokenIds;\n\n    constructor(string memory name, string memory symbol) ERC721(name, symbol)  {}\n\n    function nftItem(address player, string memory tokenURI)\n        public\n        returns (uint256)\n    {\n        uint256 newItemId = _tokenIds.current();\n        _safeMint(player, newItemId);\n        _setTokenURI(newItemId, tokenURI);\n\n        _tokenIds.increment();\n        return newItemId;\n    }\n}\n\n\ncontract NFTMarketFactory {\n\n    address[] public contracts;\n    address public lastContractAddress;       \n\n    function getContractCount() public view returns(uint contractCount) {\n        return contracts.length;\n    }\n\n     // deploy a new purchase contract\n    function deploy(string memory name, string memory symbol) public returns(address newContract){\n         MarketItems c = new MarketItems(name,symbol);\n         address cAddr = address(c);\n         contracts.push(cAddr);\n         lastContractAddress = cAddr;\n\n         return cAddr;\n    }      \n\n    function nftItem(MarketItems nftAddress, string memory tokenURI) public {\n\n      nftAddress.nftItem(msg.sender, tokenURI);\n    }       \n}",
  "sourcePath": "/home/b6ackmessiah/Programming/hackathon/oort_storj/storage_play/nftMintFactory/contracts/NftFactory.sol",
  "compiler": {
    "name": "solc",
    "version": "0.8.17+commit.8df45f5f.Emscripten.clang"
  },
  "schemaVersion": "3.4.5",
  "updatedAt": "2022-12-04T06:45:06.524Z",
  "devdoc": {
    "kind": "dev",
    "methods": {
      "approve(address,uint256)": {
        "details": "See {IERC721-approve}."
      },
      "balanceOf(address)": {
        "details": "See {IERC721-balanceOf}."
      },
      "getApproved(uint256)": {
        "details": "See {IERC721-getApproved}."
      },
      "isApprovedForAll(address,address)": {
        "details": "See {IERC721-isApprovedForAll}."
      },
      "name()": {
        "details": "See {IERC721Metadata-name}."
      },
      "ownerOf(uint256)": {
        "details": "See {IERC721-ownerOf}."
      },
      "safeTransferFrom(address,address,uint256)": {
        "details": "See {IERC721-safeTransferFrom}."
      },
      "safeTransferFrom(address,address,uint256,bytes)": {
        "details": "See {IERC721-safeTransferFrom}."
      },
      "setApprovalForAll(address,bool)": {
        "details": "See {IERC721-setApprovalForAll}."
      },
      "supportsInterface(bytes4)": {
        "details": "See {IERC165-supportsInterface}."
      },
      "symbol()": {
        "details": "See {IERC721Metadata-symbol}."
      },
      "tokenURI(uint256)": {
        "details": "See {IERC721Metadata-tokenURI}."
      },
      "transferFrom(address,address,uint256)": {
        "details": "See {IERC721-transferFrom}."
      }
    },
    "version": 1
  },
  "userdoc": {
    "kind": "user",
    "methods": {},
    "version": 1
  }
}